:020000021000EC
:10000000E03F082093010100FB000100E100010036
:10001000090101001901010029010100000000008F
:1000200000000000000000000000000099770100BF
:100030003901010000000000297801005901010088
:10004000B57D0100B57D0100B57D0100B57D0100E4
:10005000B57D0100B57D0100B57D0100B57D0100D4
:10006000B57D0100B57D0100B57D0100B57D0100C4
:10007000B57D0100B57D0100B57D0100B57D0100B4
:10008000B57D0100B57D0100B57D0100B57D0100A4
:10009000B57D0100B57D0100B57D0100B57D010094
:1000A000B57D0100B57D0100B57D0100B57D010084
:1000B000B57D0100B57D0100B57D0100B57D010074
:1000C000B57D0100B57D0100B57D01009C4B0300AD
:1000D00000C007207402000078C20720E419000065
:1000E00004207146084203D0EFF3098007F080BE78
:1000F000EFF3088007F07CBE704708B5014804F0B4
:1001000057FEFEE7F225030008B5024804F050FE52
:10011000FEE700BFFD25030008B5024804F048FED5
:10012000FEE700BF0826030008B5024804F040FEC1
:10013000FEE700BF1326030008B5024804F038FEAE
:10014000FEE700BF2026030008B5024804F030FE99
:10015000FEE700BF2E26030008B507F0E3FA07F01C
:1001600085FBBDE8084007F0F1BA0B4610B55C1AF4
:10017000944204D2441AE45843F8044BF7E710BD04
:1001800003461A1A8A4203D2002243F8042BF8E7E6
:100190007047164807F0ECFB144807F0ECFB144CD2
:1001A000144B9C4207D294E803000C3454F8042CFE
:1001B000FFF7DBFFF4E7104B9C4206D254F8080B24
:1001C00054F8041CFFF7DCFFF5E718F04FFC07F0CC
:1001D000DFFB00F097FB00F095FE4FF4164007F0B0
:1001E00025FF064804F0E4FDFEE700BFE03F0820DD
:1001F000CC000100D8000100E0000100422603000D
:10020000144A70B51368014613B94FF08053136058
:100210001068114B4518114E2B44B34298BF104B38
:100220000C4C96BFC81825602060126898BF18460D
:100230000C4B9A4281BF0C4A064B00201A6039B120
:100240000A4A136801331360094B1860094B19609F
:1002500070BD00BF7CC20720FF7FFFEFFE3F07108D
:100260005CDC0720FF3F08200040082084C20720F4
:1002700078C2072080C2072018F022BD18F020BDE8
:1002800018F026BD18F024BD10B504468AB06846A3
:1002900019F00EF8204A214B2260089A2049A260EA
:1002A000079A626052B90A681E4882428ABF02F108
:1002B000604202F17042A2F5E82262606268B2F523
:1002C000803F82BF02F17042A2F5E8226260002204
:1002D000E2600A6813498A4205D8C3F1405303F526
:1002E0000C239B1A09E010498A4207D8C3F18043C6
:1002F00003F580139B1A002B00DDE36020460B4BB7
:10030000E2611B68A3610A4B1B686361094B1B68B0
:1003100023610AB010BD00BF5C1C00005CDC07203C
:100320007CC2072000800010FF3F082078C2072011
:1003300080C2072084C2072000207047FEE70338F0
:1003400008B50A281FD8DFE800F01E06060A1612B4
:100350001A160E1E1E0017F0F5FF022316E017F006
:10036000F1FF162312E017F0EDFF13230EE017F054
:10037000E9FF11230AE017F0E5FF0D2306E017F06F
:10038000E1FF092302E017F0DDFF052303604FF0D2
:10039000FF3008BD431C10B50C4A05D00C4B1B6840
:1003A000984201D113680EE0002106290B4607D0C0
:1003B000084C591C04EB011454F8104C8442F4D13D
:1003C0001360034A1060184610BD00BF8CC207209E
:1003D00000C007209CC20720094B10B504461868CE
:1003E00018B1836B0BB918F0B3F834B1012C04D0F9
:1003F000022C02D0A4F1200010BD204610BD00BF89
:10040000C4C10720014B1860704700BF98C2072085
:10041000014B1860704700BF88C20720FEE700004C
:1004200008B5024819F02AFFFEE700BF00130300D9
:10043000002070470120704770B50A4B1D7885B9C0
:10044000094C01262046294660221E7018F0D8FC6F
:100450004FF0FF3323632364236502232560266165
:10046000236270BD94C207209CC207202DE9F74388
:1004700088461446FFF7B0FF0746FFF78BFF0628B4
:1004800005D01F4E050173199B68DB0704D517F0D3
:1004900059FF092303602DE0002F03D014DB052F43
:1004A00028DD11E0174B18681F46D0B1C146C8EBD4
:1004B0000903A34205DA3B680020984709F8010BBD
:1004C000F5E724EAE4700CE07319D86890B141466E
:1004D000224601AB03F0C5FD10B1FFF730FF0BE082
:1004E0000198201A002805DB35446B68201A034464
:1004F0006B6001E04FF0FF3003B0BDE8F08300BF58
:100500009CC2072088C20720F8B50E461746FFF7A1
:1005100063FFFFF73FFF062805D0134B04011A19AC
:10052000D0681D4630B917F00DFF092303604FF066
:10053000FF30F8BD0FB9314607E0012F01D18168C6
:1005400002E0022F05D1C168314403F074FF28B1E5
:1005500000E00920BDE8F840FFF7F1BE2C44E36855
:1005600098686060F8BD00BF9CC207202DE9F34188
:100570000F461446FFF730FF0646FFF70BFF06282D
:1005800005462DD0052E18D80123B34013F0390F9E
:100590002AD113F0060F10D01B4B18681E46D8B195
:1005A000B846C7EB0803A34204DA336818F8010B16
:1005B0009847F6E724EAE4700EE0144B03EB0513CA
:1005C000D86868B13946224601AB03F008FE10B185
:1005D000FFF7B5FE14E00198201A431C07D103E091
:1005E00017F0B0FE092303604FF0FF3008E0A0428F
:1005F000FAD0064B201A03EB05135A6802445A60DE
:1006000002B0BDE8F08100BF98C207209CC207205D
:1006100038B5FFF7E1FEFFF7BDFE062806D117F05B
:1006200091FE092303604FF0FF3038BD0C4B0001F1
:100630001C184FF0FF3208341A50606808B90020C7
:1006400038BD03F0E6FE0546606818F041FB002364
:100650006360002DF3D02846BDE83840FFF76FBE39
:100660009CC2072008B517F06DFE582303604FF0B9
:10067000FF3008BD074B1B689A68824207D05A6852
:10068000824204D0DB681B1A58425841704701204F
:10069000704700BFC4C1072030B504468DB0A8B371
:1006A000684605F041FA9DF80030002503F03F034D
:1006B00003939DF8013003A803F03F0304939DF8D2
:1006C00002300B9503F01F0305939DF8043003F0EF
:1006D0001F0306939DF8053003F00F03013B0793BA
:1006E000BDF80630C3F30B03A3F26C7308939DF8B7
:1006F000033003F007030993BDF80830C3F30B037D
:10070000013B0A9318F05AFC84E8210000200DB048
:1007100030BD000070B50F4D0F4E2C6814F0010471
:1007200015D1284607F048FD88B14FF40E70FFF749
:10073000A3FD302380F835323A2380F8344280F824
:10074000363280F837423060284607F041FD306885
:1007500070BD00BF18C3072000C3072038B5064C82
:1007600023683BB940F22440FFF786FD054605F0BB
:1007700077F92560206838BD0CC3072010B5054CFB
:10078000204607F0F1FF2046BDE810400249034A29
:10079000FFF7D2BD1CC307207988010090C2072053
:1007A000014819F06BBD00BF3913030038B504468A
:1007B0000D4607F0E9FB074BB0FBF3F00223B0FB5B
:1007C000F3F2954201D3236138BDB3F5807FFAD0AF
:1007D0000233F4E740420F007FB500F235260C46A5
:1007E0000122314603F066FB054650BB04A941F8DF
:1007F000040D02AA304603F0C4FE00BB029A039B1C
:100800009078926903FB00F1023A42435208B2F534
:10081000004F104834BF01254FF480654FEA510165
:100820000D4BB1FBF5F128BF0346B2FBF5F28DE8A5
:100830000A000A48214619F065FC012008E0084B2F
:1008400000E0084B084821462A4619F05BFC0020CE
:1008500004B070BD77130300741303008113030009
:100860007A1303007E130300AF13030038B5074C5F
:1008700023684BB90820FFF7FFFC0546FFF76EFF22
:10088000402328602B712560206838BD28C30720CD
:1008900038B5054C256825B90120FFF7EDFC05703A
:1008A0002060206838BD00BF24C3072038B5084C3D
:1008B00023685BB90C20FFF7DFFC0546FFF74EFF0E
:1008C00090232B7100232860AB602560206838BD21
:1008D00004C3072010B5044C23681BB90120FFF79F
:1008E000CBFC2060206810BD08C3072010B5044C65
:1008F00023681BB90120FFF7BFFC2060206810BDF2
:1009000020C30720AD49AE4A4023F0B58B614FF0BC
:10091000007393614FF480338B61AA4BADF5057D75
:100920001868072520F0F00018601868022440F0CD
:1009300050001860186820F440501860086840F0B3
:1009400040000860186820F47C201860186840F4A3
:1009500028201860186820F470001860186840F4A7
:1009600020001860186820F040401860186840F0B7
:1009700000401860586820F03C005860586840F00B
:1009800028005860586820F003005860086840F458
:1009900080300860586820F440505860086820F49F
:1009A00080000860D96821F44031D960116841F0B5
:1009B00080711160596821F440215960596841F4EF
:1009C000802159609868804901409960116841F41C
:1009D000897141F001011160996821F470119960E9
:1009E000996821F070419960116821F446411160C5
:1009F000D96821F03001D960D96841F03001D9605F
:100A0000D96821F47011D960136843F00073136042
:100A1000136823F08063136004F0BCFC0A200121FA
:100A200007F0D2F80A20012107F0E6F86748012113
:100A300005604460FFF7BAFE05F03AF91520012180
:100A400007F0C2F81520012107F0D6F8604801210F
:100A500005604460FFF7AAFEFFF780FE642104F002
:100A6000C9FF10B95B4819F009FC07F0EBF801F079
:100A700085FA10B9584819F001FC4FF4FA6004F0F7
:100A800048FCFFF78DFE07F07FFA16F0EFFE5349A2
:100A900016F0F8FF16F0E8FC02460B46504819F035
:100AA00031FB06F06FFF052804AC14D1002363600E
:100AB0004C4B1B682360FFF773FE4B4B4B48D96CC4
:100AC0001A6D5B6D009419F01DFBFFF769FE41F292
:100AD000883004F01EFCFFF71DFE4549FFF77CFE41
:100AE000054668BB434819F00DFB02F0B3FAFFF767
:100AF00011FE29462A4600F2352003F0A7FD3E4BA1
:100B00003E4A00280CBF1046184619F0B7FBFFF705
:100B100001FE3749FFF760FE90B9394819F0AEFB86
:100B200002F044FA0146374819F0ECFA02F02EFAC6
:100B3000054602F03BFA05FB00F1334819F0E2FAF2
:100B4000324E334F336813F0010516D1304607F0AB
:100B500033FB90B14FF40E70FFF78EFB012380F84A
:100B60003432312380F835323A2380F8363280F837
:100B700037523860304607F02BFB26493868264D3F
:100B8000FFF72AFE11481821FFF710FEFFF708FEB5
:100B90002B684BB90820FFF76FFB0646FFF7DEFD19
:100BA0003823306033712E60286801F052FA054610
:100BB000B0BB1A4819F062FB33E000BF00C0092047
:100BC00020C0092000C00240F0FCFCFF00000340F0
:100BD00000800840FA1303002B140300002474491A
:100BE00050140300444002400040024068140300D7
:100BF000E0140300E8140300E7130300E21303000A
:100C000025150300441503005315030014C30720E2
:100C1000FCC207206E15030030C3072076150300C1
:100C20000125FFF743FE01F013FB064618B9724891
:100C300019F024FB3546FFF719FE01F08BFA064642
:100C400018B96E4819F01AFB35466D4E33681BB95A
:100C50000120FFF711FB3060306801F049FAFFF71F
:100C600039FE01F0E1FAFFF713FE01F0ADFAFFF7EC
:100C70003DFE01F0DEFAFFF70BFE002101F0A6FABF
:100C80008DB9FFF78DFDFFF7F1FD2D2101F04AFA37
:100C9000FFF7ECFD2D2101F051FAFFF7F9FDFF21DF
:100CA00001F094FA0CE0FFF7E1FD0546FFF7FEFDC9
:100CB00001F0F8FA16F0F8FFC1B2284601F066FA22
:100CC00000211022204618F09BF84E4821460F22A2
:100CD000002301F0F9FA80B9204617F0E2FAC5B214
:100CE000284600F053FB484A484B2946002808BFD5
:100CF00013464748434A19F005FAFFF7EBFD01F0A8
:100D000095FA054600201BF065FA284419F0C0FA50
:100D10004FF400720021204618F072F8204606F0C9
:100D2000CFFF21463B4819F0EDF9FFF739FD80224E
:100D30000021204618F064F8204602F013F92278CA
:100D4000FF2A04D02146344819F0DCF929E0FFF7E6
:100D5000CDFD01F071FA09281DD1304819F08EFA45
:100D600021462F4819F0EAFB21462E4819F0CAF90E
:100D70002D4819F083FA00232C4803A9039319F096
:100D8000DDFB9DF80C30592B03D1204602F0C8F84A
:100D900007E0274803E0274819F070FA264819F0C1
:100DA0006DFA4FF208031C684FF20C031D684FF2F6
:100DB00010031E684FF2040319684FF470431A6859
:100DC000A40AAD0A1D4819F09DF9224629461C487F
:100DD00019F098F931461B4819F094F9FFF7E0FC37
:100DE000012003F079FF184819F048FAFFF7D8FC02
:100DF0000DF5057DF0BD00BF91150300AB15030097
:100E00002CC30720C4150300F3130300ED130300E4
:100E1000CA150300FE150300011603001D1603008A
:100E20003F160300441603005F160300A2160300DA
:100E3000A6160300BE160300EC1603001E170300DF
:100E40004A17030077170300941703000120704727
:100E5000012070470120704710B5044C23681BB96E
:100E60000120FFF709FA2060206810BD2CC307207D
:100E700010B5054C204607F077FC2046BDE8104031
:100E80000249034AFFF758BA34C3072079880100A2
:100E900090C2072010B5054C204607F065FC20469F
:100EA000BDE810400249034AFFF746BA35C30720A0
:100EB0007988010090C2072010B5054C204607F044
:100EC00053FC2046BDE810400249034AFFF734BAFC
:100ED00036C307207988010090C20720704708B503
:100EE000406B04F00FFC012008BD08B5406B04F016
:100EF0006BFB012008BD10B50446FFF7C1F9204681
:100F000010BD000073B503220021012005F045FD4E
:100F1000174B184C1860184B38201A6922F003023E
:100F20001A611A6942F001021A61FFF7A5F9054634
:100F300000230093114902234FF4FA6204F0BAF936
:100F40000F4B2B60236833B98420FFF795F90646D1
:100F500004F03EFD2660236828466B6304F07AF9AE
:100F60000020014604F084F94FF0FF3002B070BD5C
:100F700040C3072038C3072000C002400018030008
:100F8000E817030010B5054C204607F0EDFB20469E
:100F9000BDE810400249034AFFF7CEB93CC3072021
:100FA0007988010090C20720242310B503FB0101BA
:100FB00088420BD043783BB1038CD4184FF6FF73B3
:100FC000A34228BF234603842430F1E710BD00006C
:100FD00037B5002302A840F8043D0C4B04215B68A0
:100FE00098470B4B019A1C680546141B1A60094868
:100FF00022460421FFF7D8FF074802212246FFF7C7
:10100000D3FF281C18BF012003B030BD44C3072004
:1010100010C4072058C3072033C4072008B50B4B62
:10102000197803788B420A4B0BBF1A889A880132D1
:10103000013214BF9A801A80064B8170DB68202130
:101040009847003018BF012008BD00BF09C0072025
:1010500000C4072044C307200A4B02781B789A4239
:10106000094B0BBFDA881A89013201320CBFDA80D2
:101070001A810379C3F3C202073262F3C503037115
:10108000FFF7CCBF09C0072000C4072010B500231C
:1010900006499A0011F82340844201D1881810BDF6
:1010A0000133042BF4D1002010BD00BF21C4072060
:1010B00070B1C3780133DBB2FF2BC37008D10023BA
:1010C000044A1A44D17804334908102BD170F7D15F
:1010D000704700BF21C40720242202FB0101034600
:1010E000024630B58A4206D01446243212F8235CF8
:1010F000002DF7D10FE0044600258B420BD01A7962
:10110000C2F3C2001A8C42EA004295423CBF1C4620
:1011100015462433F1E7204630BD000038B50546BA
:10112000C90001F10804FFF753FF1C4B1A782B7814
:101130009A4204D102211A48FFF7CEFF0CE0194869
:101140000421FFF7C9FFEB7833B990F8233004246A
:1011500043F0800380F82330002380F8203080F8AB
:10116000213002462B4690F8231080F8224021F0CF
:101170007F01C4F306240C4380F8234005F12001CD
:1011800053F8044B8B4242F8044BF9D1064A0379D9
:10119000127862F3C503037138BD00BF09C0072090
:1011A00033C4072058C3072008C0072010B5FFF735
:1011B0006DFF0446F8B9FFF769FF0446D8B90F4B35
:1011C000DA79D9788A4228BF0A46D97A34BF1C1DF9
:1011D0001C4691422CBF1146094CDA7B094B8A42CE
:1011E00038BF1C4604222046002117F009FE064A9B
:1011F000D37A0133D372204610BD00BF21C407202B
:1012000029C407202DC4072000C407202DE9F04180
:1012100005460C464FF0240808FB02188E1D444575
:1012200000F09E8094F823301A0625D5BDB12A78A7
:1012300061788A4205D16F7816F8060C874200F073
:101240009180E87858B16878884208D116F8061C71
:10125000914204D1A979A279914200F0838094F857
:101260002220218C03F07F0342EA0323994274DB9E
:101270002046FFF7D3FE75E06278002A6DD06DB38B
:10128000297901F0C001C02917D116F8060C697838
:10129000884202D12878904264D0E778A8788742C3
:1012A0000CD191420AD116F8060C2978884205D152
:1012B000A079A979884201D154E079B1A878E17880
:1012C00088420BD16978914208D116F8060C29782A
:1012D000884203D1A079A979884249D094F8221094
:1012E000208C03F07F0341EA0323984235DB00237F
:1012F00084F8203084F821302379C3F3C201CFB2BF
:101300001FB12046FFF7A8FE27E003F0C003C02B63
:1013100019D01C4B16F8060C1B78984213D1E378B1
:10132000934210D07BB16379032262F30713637198
:10133000E1702046FFF790FE134A2379127862F39A
:10134000C503237100E001276078FFF79FFE18B105
:101350000021042217F054FD27B9243424365EE717
:10136000BDE8F08120460021242217F049FDF4E772
:101370002279002363F3C50284F8203084F82130F9
:101380002271EAE709C0072008C00720431EDBB22C
:10139000FD2B9DBF024B187001200020704700BF3D
:1013A00009C00720014B1878704700BF09C007200B
:1013B0002DE9F743044691461E469DF828500F46F6
:1013C000002963D0354B93F80080414560D00F2E43
:1013D0005ED800285ED02022002117F011FDFF2FDB
:1013E000237914BF09F00302002262F3871303225A
:1013F00062F302032A4A6770127884F8008062F36D
:10140000C503284A2371137884F802800133DBB2C4
:101410001370A3710BAB019315B94FF0010818E0DD
:10142000019AE0791346526853F8081B00EB020852
:101430005FFA88F8013DB8F1180F0193EDB206D8B4
:101440000830204417F0B6FC84F80780E4E74FF03A
:101450000008DFF854900123384689F80030FFF780
:1014600015FE0546FFF724FE002389F80030637956
:1014700025B966F307136371E57005E0AA7862F396
:10148000071363716B78E370404603E0084601E0A0
:101490000020FFE703B0BDE8F08300BF09C00720CC
:1014A00008C0072031C407200CC40720124B0122BA
:1014B00070B51A7004461E4608B9002518E0FFF7FB
:1014C000ADFD05460028F8D0237903F0C003402B7A
:1014D00006D0C02B0AD1E37853B162789A4207D084
:1014E000617920460909FFF719FE01E0802BF7D04A
:1014F00000233370284670BD0CC4072082B0F0B5BD
:101500001746421ED2B28DB0FD2A04460D461393F3
:1015100001D900205AE0002BFBD0159B002BF8D0FE
:10152000179B002BF5D0169B002BF2D0149B002BA1
:10153000EFD000214822284817F062FC00219022B9
:10154000264817F05DFC00211022254817F058FCB2
:1015500000210C22234817F053FC00210C222248C2
:1015600017F04EFC214E224B1C703446214B1D704F
:1015700013AD0FCD0FC42B68002118221E48236025
:1015800017F03EFC39461C48172219F058FE00207F
:10159000B368014698470028BBD09DF8603013B966
:1015A000FFF716FD12E0154A01230192062202926E
:1015B000009304A8FF210022FFF7FAFE0028A8D01C
:1015C00004A8FFF773FF0028A3D0E9E70DB0BDE83A
:1015D000F04002B0704700BF33C4072058C3072053
:1015E00021C4072015C4072000C4072044C30720D6
:1015F00009C0072014C40720E8C30720041803000B
:1016000030B5182B8DB005460C4615D8B2FA82F1CC
:10161000181C18BF0120490981420DD08DE80D002A
:10162000294604A822469DF84030FFF7C1FE18B1B4
:1016300004A8FFF73BFF00E000200DB030BD13B55C
:101640000446107852790B46120900920321224673
:10165000FFF7D6FF02B010BD00231846044A12F867
:1016600023200AB10130C0B20133042BF6D17047F8
:1016700021C407202DE9F04188B0684600212022CE
:1016800017F0BEFBA14B1B7803F0FF04002B40F0CA
:101690003A819F4E6846336920219847002800F020
:1016A00083809C4D6B8801336B80FFF7D5FF9DF8DD
:1016B0000420A87202F00703032B04D0964A137883
:1016C00043F0010309E0954B1D789DF80230AB42D1
:1016D00005D1914A137843F002031370E3E0C2F39B
:1016E000C2029DF800E09DF80600D7B28C4904EBD9
:1016F000440313F801C0F4450AD10B4459788142E0
:1017000006D199780124CF1B18BF01279A7018E0E1
:101710000134042CEAD183490B689A70804A5870CE
:1017200002F10900834283F800E040F0C9800A60BA
:101730009DF800009DF80230834240F0C4800024F0
:1017400027469DF80200FFF731FD9DF80220027048
:101750009DF80220427000228270FFF7A9FC04B1BC
:1017600017B39DF80030AB4200F09C809DF80170EB
:10177000FF2F1BD1336868462021984720B9664A5D
:10178000137843F0040313709DF8053003F00F0243
:10179000511C61F303038DF80530C3F303139A4220
:1017A00002DA6846FFF73AFC00247CE0BD422BD108
:1017B00064B99DF807304BB13368684620219847DB
:1017C00020B9554A137843F0040313709DF8043090
:1017D00003F0C003402B12D19DF8073013B95248D3
:1017E000182108E04B480C216A46FFF728FF002823
:1017F00058D1002001466A46FFF721FF52E09DF8CC
:101800000330002B4ED1F4E7484B1B78002BCBD094
:101810009DF8054004F00F064FEA14184645C3DA58
:10182000013666F303043846FFF730FC8DF80540B7
:101830009DF80340A5421ED19DF8041001F0C0019F
:10184000402906D0A1F180035A425A41144618B9E2
:101850001BE00122002854D0C029437805D19F42C3
:1018600003D0003318BF012300E00023134303F02B
:10187000010428B90BE0ACB910B9684641460FE045
:1018800043788DF80330857804E0C02939D00025ED
:101890008DF803506846FFF7C1FB1CB16846294626
:1018A000FFF73CFC6C46FFF793FB204620490422DF
:1018B000FFF7ACFC20461F490222FFF7A7FC22E0FD
:1018C00003330B6034E785423FF439AFFFF76EFC1A
:1018D0000446FFF7EDFB23783BB19DF80530A27875
:1018E00003F00F0393423FF72AAF9DF800302370B7
:1018F0009DF8023063709DF80530C3F30303A370B5
:101900001DE70346B2E708B0BDE8F0810CC407202C
:1019100044C3072000C4072032C4072009C00720A1
:1019200015C4072004C00720E8C3072014C40720FB
:1019300058C3072033C4072000231846094A1A4415
:1019400052780AB10130C0B22433902BF6D1064B45
:101950005A780AB10130C0B293F825300BB101308A
:10196000C0B2704758C3072033C4072030B5414C7C
:101970004FF48035E561404CA060E068C506FCD4BA
:101980003D488068C0B20BB90C4665E00B46002AA2
:101990006AD0072A384C0D782FDDA5604D78083ABB
:1019A000A5608D78A560CD78A5600D79A5604D798D
:1019B000A5608D79A56001F10805C979A1602E495E
:1019C0008C696407FBD58C681C708C685C708C68B3
:1019D0009C708968D9702849CC68E406FBD48C686F
:1019E000083303F8044C8C6803F8034C8C6803F844
:1019F000024C896803F8011C1BE0032A1BDDA5606B
:101A00004D78043AA5608D78A5600D1DC978A16058
:101A10001949CC68E406FBD48C68043303F8044C01
:101A20008C6803F8034C8C6803F8024C896803F84F
:101A3000011C2946ABE70131A560013AE568ED06D6
:101A4000FCD40D4C0133A46803F8014C9FE7DD681A
:101A5000ED06FCD4084B9B68631A934204DA14F831
:101A6000015B054B9D60F2E7024B4FF480329A61B7
:101A700030BD00BF00C009200080084007B500232A
:101A800002A9012201F8013D00F01F001346FFF7F3
:101A90006DFF9DF8070003B05DF804FB07B502ABCE
:101AA00003F8011D00F01F0019460122002340F039
:101AB0002000FFF75BFF03B05DF804FB08B51720BB
:101AC000FFF7DCFFC0F3001008BD07207021FFF70F
:101AD000E5BF03460A46A02019460023FFF746BF8C
:101AE00008B50020FFF7CAFFBDE8084000F0FE017E
:101AF0000020FFF7D3BF0000024B4FF08072DA6185
:101B0000704700BF20C0092008B50020FFF7B6FFCE
:101B100040F00101C9B20020FFF7C0FF024B4FF0B7
:101B200080729A6108BD00BF20C0092007202021D3
:101B3000FFF7B4BF0021E1200A460B46FFF716BFAE
:101B400037B50C460546FFF7F5FF21462846FFF757
:101B5000C0FF0D4B4FF080721C469A610022ADF819
:101B60000620BDF8063001339BB2ADF8063033B91C
:101B70004FF08073E361FFF7DDFF03B030BDFFF787
:101B80009DFF0028EDD0F3E720C0092008B51720FD
:101B9000FFF774FF00F0010080F0010008BD07208E
:101BA0004021FFF77BBF08B503460A46612019466E
:101BB0000123FFF7DBFEC0F3420008BD0021E22055
:101BC0000A460B46FFF7D2BE70B5064600200D460A
:101BD0001446FFF753FF16B100F0BF0002E040F0DB
:101BE0004000C0B215B100F0DF0101E040F020017B
:101BF00014B101F0EF0101E041F010010020BDE857
:101C00007040FFF74BBF10B504460020FFF736FFCA
:101C100014B900F0F7010DE0012C04D100F0FB0134
:101C200041F0080106E0022C14BF40F0080140F02A
:101C30000C01C9B20020BDE81040FFF72FBF08B566
:101C40000020FFF71BFFBDE8084040F00201C9B2C9
:101C50000020FFF723BF08B50020FFF70FFFBDE806
:101C6000084000F0FD010020FFF718BF40F6DD132B
:101C7000984206D840F66213B0F5166F38BF184682
:101C800000E01846A0F51661C9B20520FFF706BFAF
:101C900010B504460620FFF7F1FEFA2C00F0D7013C
:101CA00002D141F0200104E0B4F5FA6F08BF41F021
:101CB00008010620BDE81040FFF7F0BE10B504464D
:101CC0000620FFF7DBFE032C20F0060028BF0324CC
:101CD00040EA4401C9B20620BDE81040FFF7DEBE6D
:101CE000F9284FF0FA0305D9B0F57A6F88BF4FF4A1
:101CF0007A6000E01846B0FBF3F00F2900F1FF30E6
:101D0000C0B228BF0F2141EA0011C9B20420FFF779
:101D1000C5BE1130C0B2162804D8202928BF202102
:101D2000FFF7BCBE7047032804D0042814BF03216A
:101D3000022100E001210320FFF7B0BE03460A465E
:101D4000302019460023FFF711BE03460A462A2019
:101D500019460023FFF70ABE73B50E461546044622
:101D6000FFF72CFFFFF7E6FE2B4B4FF08072DA6196
:101D7000FFF771FF00210A460120FFF725FFFFF75B
:101D8000A4FE0220FFF73FFF3046FFF76FFF284613
:101D9000FFF77EFF0320FFF791FF02200321FFF7EB
:101DA0007DFE01200021FFF779FE4FF4FA70032138
:101DB000FFF796FF21460020FFF7ABFF122000211E
:101DC000FFF76CFE13200021FFF768FE14200021AE
:101DD000FFF764FE15200021FFF760FE00211620AA
:101DE000FFF75CFE0D4B18681B79009005208DF8FD
:101DF0000430FFF798FF68460521FFF79FFF68460C
:101E00000521FFF7A2FFFFF71AFF4FF4FA6003F076
:101E10006BFA02B070BD00BF20C009200B18030090
:101E200070B5154E326822B90320202104F0B5FDAB
:101E30003060124D2A6822B90120202104F0ADFD46
:101E400028600F4C216821B90120032204F0A5FD70
:101E50002060202040F6C3114FF4FA62FFF77CFFA8
:101E6000FFF752FE306828B1286818B120680030AA
:101E700018BF012070BD00BF80C407207CC40720AC
:101E800084C4072070B506460379002203F0C0031E
:101E9000C02B0CBF0D4B0E4B88B01D683146284639
:101EA000134604F0ABFD044660B92246234669465A
:101EB000284604F077FE224623462846314604F0A1
:101EC0009DFD0446204608B070BD00BF7CC40720BD
:101ED00080C4072038B504460D46FFF763FA23781F
:101EE00083420AD0E37843B918F0FAF9BD2300F031
:101EF000030000FB033003F0F7F9FFF7FDFDFFF7E8
:101F0000EFFD2046A9B2FFF71BFEFFF70FFEFFF71C
:101F1000FBFD05F031FB022806D1044B00211868B7
:101F20000A460B4604F003FE012038BD84C4072096
:101F300038B505460C46FFF729FE48B1A1B2284640
:101F4000FFF731FEFFF722FE08B9FFF728FE012058
:101F500038BD042938B5054603D1041C18BF012437
:101F600000E0002405F098FE2CB14FF47A720023B3
:101F700015F0BAFE2860204638BD000000B50C4BB5
:101F80008DB009930B4B0C4A0B930C4B0A930CAB83
:101F900043F8102D002204920FCB8DE80F00084B60
:101FA0000121084A6A20FFF7A9FA0DB05DF804FB89
:101FB000211E0100311F0100531F0100D51E010029
:101FC000851E01001018030008B505F0D5FA0F4B67
:101FD00002285B6913D15A020DD5FFF7ADFC0C4BFB
:101FE00000284FF00001186814BF01224FF0FF32A3
:101FF0000B4604F0D7FDBDE80840FFF73BBB5B0292
:10200000F9D5FFF799FC0028F5D108BD00C00920DB
:1020100084C4072030B504460D46134621792A466C
:10202000BDE83040006804F041B81FB50A4604AB73
:102030000021022423F8041D01790094006804F0B3
:1020400020F89DF80C009DF80D3043EA002004B004
:1020500010BD10B504462A211922FFF7DBFF2068C6
:1020600021790D2204F011F8A0F12A0358425841B9
:1020700010BD0000044A13881F2B9FBF581C1080FE
:10208000024A42F8231070478CC4072090C40720EE
:10209000144AF0B51488012C20D9134B00211F4697
:1020A000661EB14206DA58681D680131401B43F8CC
:1020B000040BF5E77B6803EB5301002318469CB241
:1020C000B44209DA57F8245001338D4282BF01250A
:1020D00005FA04F42043F2E7044B18600023138050
:1020E000F0BD00BF8CC4072090C4072088C407201F
:1020F00008B50220012105F067FD084B01209A6A0E
:1021000022F007029A629A6A42F006029A62044A30
:10211000D36843F03003D36008BD00BF00800040A7
:1021200000C0024008B5044A01F07F034171D25C4F
:102130000321FFF76FFF08BD1518030008B5044A17
:1021400001F07F038171D25C0221FFF763FF08BDBC
:102150001518030038B504460068217903F0B1FF73
:10216000054688B1204606210022FFF753FF20468E
:1021700007210022FFF74EFF20462E21FFF7D2FF56
:1021800020462E21FFF7DAFF284638BD642370B5BC
:10219000B1FBF3F404FB1311CCB20A21B4FBF1F54B
:1021A00001FB15413031C9B20646FFF7C7FF092CC4
:1021B0008ABF05F1300130463046BDE8704094BF1B
:1021C0002021C9B2FFF7AEBF0120704738B50D46D8
:1021D000044605F00DFB05F00F032370114B15F0BD
:1021E000010F4FF0010214BFDA619A61227812F0F8
:1021F000020F4FF0020214BFDA619A61227812F0E6
:10220000040F4FF0100214BFDA619A61227812F0C5
:10221000080F4FF4807214BFDA619A61BDE838404C
:1022200005F0F8BA20C0092001207047022003F011
:10223000EBB8012070470000044B5B69C3F38130A9
:10224000C3F3412343EA8000704700BF20C0092048
:1022500010B5044601218122FFF7DCFE20682179B8
:10226000012203F012FF10F0600F14BF01200020C4
:1022700010BD38B500210546FFF7D7FE81220121A8
:1022800084B22846FFF7C6FE24B2102094FBF0F07B
:1022900015F0F0FA4FF0765115F040FBA96815F0F3
:1022A00035FA38BD08B5FFF7E4FF054915F036FBF0
:1022B000044915F0E7FB4FF0844115F027FA08BDFB
:1022C000000010410000A040F0B50446ADF50B7DC4
:1022D0000F46164621461D4601A800230122009301
:1022E00001F026FE044670B91DB101A8294602F08E
:1022F000A2F801A8394632466B4601F0B2FE044608
:1023000001A802F086F820460DF50B7DF0BD000017
:102310007F2816D931B1FF2812D80A4B803833F8FC
:1023200010007047074A8BB232F81120824203D066
:1023300001318029F6D10B4603F18000C0B270470D
:1023400000207047761A03000023064A32F8132053
:1023500032B1904201D00133F7E7034A32F813005B
:10236000704700BF761B03009618030010B50120CC
:102370000C4604F0B6FB2060003018BF012010BDF1
:102380000120704710B5044605F0F6F802280AD17E
:1023900000210B4620464FF0FF3204F003FC431EA1
:1023A0005842584110BD012010BD10B5044605F03B
:1023B000E3F8022807D100212046BDE810400A4674
:1023C0000B4604F01BBB10BD10B5044603F0E0FC47
:1023D00024B1012C06D100F07BF901E000F0EEFC05
:1023E000044600E0042403F0EBFC204610BD28B1B5
:1023F000012801D00420704700F018BA7047F8B5E2
:1024000007460E4615461C4603F0C2FC3FB1012F9D
:102410000CD130462946224600F010FA04E030463E
:102420002946224600F016FD044600E0042403F08D
:10243000C7FC2046F8BDF8B507460E4615461C46B3
:1024400003F0A6FC3FB1012F0CD1304629462246AD
:1024500000F042FA04E030462946224600F020FD12
:10246000044600E0042403F0ABFC2046F8BD70B540
:1024700006460D46144603F08BFC36B1012E0AD1F8
:102480002846214600F082FA03E02846214600F063
:102490002BFD044600E0042403F092FC204670BDAE
:1024A00008B505F0F9FB4FF47A72002315F01CFC17
:1024B00008BD000010B5044605F066FD074BB0FBF3
:1024C000F3F00223B0FBF3F2944202D3044A136107
:1024D00010BDB3F5807FF9D00233F3E740420F001F
:1024E00000000340044B9860DA68D206FCD4024B2B
:1024F0009868C0B2704700BF0000034038B5FFF7CE
:10250000CFFF00F5FA75FF20FFF7ECFFFF20FFF784
:10251000E9FFFF28044606D0FFF7C2FF00239942D7
:1025200008BFA842F2D3204638BD000038B5064C9B
:102530004FF00075E561FFF7E1FF044AA5611378EC
:1025400043F00103137038BD20C009200AC00720E2
:1025500070B505460E46FFF7A3FF00F16404FF20A7
:10256000FFF7C0FFFF2808D1FFF79AFF0023994229
:1025700008BFA042F3D3002070BDFE28FBD1102E6F
:1025800006D928464FF40071002203F09FFB19E0A2
:102590002C1DFF20FFF7A6FF04F8040CFF20FFF717
:1025A000A1FF04F8030CFF20FFF79CFF04F8020CC6
:1025B000FF20FFF797FF043404F8050C331D1B1BA5
:1025C000DD42E6D1FF20FFF78DFFFF20FFF78AFFF6
:1025D000012070BD70B506460D46FFF78FFFFF283E
:1025E000044619D12846FFF77DFFFD2D16D04FF484
:1025F00000712246304603F069FB2046FFF772FF68
:102600002046FFF76FFF2046FFF76CFF00F01F002A
:10261000431F5842584170BD002070BD012070BD5D
:10262000020638B504460D4607D577200021FFF78E
:10263000F7FF012836D804F07F041B4B4FF00072DF
:102640009A61DA61FFF75AFFFF282AD12046FFF787
:1026500049FF280EFFF746FFC5F30740FFF742FF8B
:10266000C5F30720FFF73EFFE8B2FFF73BFF402C22
:1026700004D0482C0CBF8720012000E09520FFF7F4
:1026800031FF4C2C02D1FF20FFF72CFF0A24FF2042
:10269000FFF728FF030605D5013C14F0FF04F6D12F
:1026A00038BDFF2038BD00BF20C00920064A0749B9
:1026B00013784969DBB2490154BF03F0FD0343F0CD
:1026C00003031370704700BF0AC0072020C0092011
:1026D0002DE9F347FFF7EAFF514B1A781E4612F037
:1026E000020F01D0187896E00120FFF7E3FE0A24DC
:1026F000FF20013CFFF7F6FE14F0FF04F8D1494D2E
:102700004FF00073EB6140202146FFF789FF01285D
:1027100001D000246EE0FFF7C3FE4FF4D57100F541
:102720007A7A4820FFF77CFF01283DD1FF20FFF790
:10273000D9FE01AF38550134042CF7D19DF806308D
:10274000012BE6D19DF80730AA2BE2D1FFF7A8FEB6
:102750004FF00009494508BF5045D04606D3FFF762
:102760009FFE494508BF4045D3D207E0E9204FF01E
:102770008041FFF755FF0028E8D1F0E77A200021DB
:10278000FFF74EFF0028C4D10446FF20FFF7AAFE42
:1027900038550134042CF8D19DF8043013F0400F63
:1027A00014BF0C24042425E02146E920FFF738FF5C
:1027B000022835BF02240124E9274127FFF770FED4
:1027C0004FF00009494508BF5045D0460BD3FFF7ED
:1027D00067FE494508BF40450CD34FF400715020B7
:1027E000FFF71EFF06E038460021FFF719FF00281B
:1027F000E4D1ECE70C4B1C704FF00073AB613CB1C3
:102800003378182003F0FE033370FFF753FE01E026
:10281000FFF78CFE3078C0B202B0BDE8F08700BF91
:102820000AC0072020C0092010C5072008B5FFF7FF
:102830003DFF014B187808BD0AC00720F8B51446C3
:1028400007460E46FFF732FF002C3AD01F4B1B788D
:10285000DB0738D41E4B4FF00072DA611D4A1D466B
:10286000127812F0080F08BF7602012C0DD151200A
:102870003146FFF7D5FEE8B938464FF40071FFF74F
:1028800067FEB0FA80F4640914E052203146FFF785
:10289000C7FE78B938464FF40071FFF759FE28B1EA
:1028A000013C14F0FF0407F50077F3D14C20002120
:1028B000FFF7B6FE4FF00073201CAB6118BF01207C
:1028C000F8BD0420F8BD0320F8BD00BF0AC00720F2
:1028D00020C0092010C50720F8B5144607460E464B
:1028E000FFF7E4FE002C45D0254B1A78D20743D4DD
:1028F0001B785B0742D4234B4FF00072DA61224A07
:102900001D46127812F0080F08BF7602012C0CD178
:1029100058203146FFF784FE28BB3846FE21FFF7DA
:1029200059FEB0FA80F464091DE012F0060F03D0DE
:10293000D7202146FFF774FE59203146FFF770FE7D
:1029400088B93846FC21FFF745FE28B1013C14F058
:10295000FF0407F50077F4D10020FD21FFF73AFED0
:10296000002808BF01244FF00073201CAB6118BF82
:102970000120F8BD0420F8BD0320F8BD0220F8BDF9
:102980000AC0072020C0092010C507207FB50446D3
:102990000D46FFF78BFE052C1AD12B78012B00F08A
:1029A000FD8003D3022B0BD00420FAE07E4B586944
:1029B00010F0806440F0F280FFF7B8FD2046F0E0B0
:1029C000794B5B6983F08063C3F380636B70E5E0F0
:1029D000764B1B78DB0700F1E3800E2C00F2D880E9
:1029E000DFE804F008124F53D6D6D6D6D6D6A3A821
:1029F000AAB4C4006C4B4FF00072DA61FFF77EFDA1
:102A0000FF3818BF0120C4E049200021FFF708FE6D
:102A1000044608B10120BCE068461021FFF798FD8C
:102A20000028F7D09DF800309DF809009B09012B84
:102A30009DF8083005D1013000EB03239BB29B02C7
:102A40001CE09DF80710890001EB93135A1C9DF8B8
:102A500006309DF8051003F0030302EB83239DF875
:102A60000A2001F00F0101EBD212911C00F00302C9
:102A700001EB4202D2B29BB2093A93402B6020464E
:102A800087E04FF400732B8052E0494E337803F017
:102A9000040303F0FF01DBB1CD200021FFF7C0FDEF
:102AA0000028B7D1FF20FFF71DFD68461021FFF772
:102AB0004FFD0028AED03024FF20FFF713FD601E2D
:102AC00010F0FF04F8D19DF80A2010231209D4E772
:102AD0004920FFF7A5FD044600289BD16846102138
:102AE000FFF736FD002895D031789DF80A2001F0D7
:102AF000020101F0FF009DF80B3051B102F03F02DE
:102B0000DB0903EB42039DF80D2001339209013AE2
:102B1000B3E7C2F3840103F003045A0902EBC402D1
:102B2000531C01FB03332B6033E0214B1B782B70CC
:102B300000202EE0492000E04A200021FFF770FD30
:102B400000287FF467AF284610211BE07A2000217F
:102B5000FFF766FD00287FF45DAF2C1DFF20FFF717
:102B6000C1FC05F8010BA542F8D1E1E7CD20002119
:102B7000FFF756FD00287FF44DAFFF20FFF7B2FCB2
:102B800028464021FFF7E4FCB0FA80F0400900E05D
:102B90000420054B4FF000729A6102E0002000E033
:102BA000032004B070BD00BF20C009200AC0072068
:102BB00010C50720054B1B78253BDBB2032B9ABFC2
:102BC000034A52F823000020704700BF14C50720B5
:102BD000601D03001B4B2DE9F0411D880646B5F52D
:102BE000007F0F46144602D1084611460AE0B5F5AB
:102BF000807F09D1084611462A46B04707F5807004
:102C000004F580712A4617E0B5F5047F05D1510A15
:102C1000384689024FF400720EE0B5F5847F0FD17B
:102C2000140A08464FF480726102B047611C07F530
:102C3000807049024FF480723346BDE8F041184776
:102C4000BDE8F08112C50720034610B500295DDDFF
:102C500007291A782E4C2FDDA2605A780839A26015
:102C60009A78A260DA78A2601A79A2605A79A26092
:102C70009A79A26003F10802DB79A360244B9C6976
:102C80006407FBD59C6804709C6844709C688470E1
:102C90009B68C3701E4BDC68E406FBD49C6808305C
:102CA00000F8044C9C6800F8034C9C6800F8024C47
:102CB0009B6800F8013C1BE003291BDDA2605A78E9
:102CC0000439A2609A78A2601A1DDB78A360104BC9
:102CD000DC68E406FBD49C68043000F8044C9C6873
:102CE00000F8034C9C6800F8024C9B6800F8013C1B
:102CF0001346ABE70133A2600139E268D206FCD487
:102D0000034A0130926800F8012C9FE710BD00BF14
:102D10000000034007B50B0C8DF804008DF805305A
:102D20008DF807100B0A01A804218DF80630FFF773
:102D30008BFF03B05DF804FBF7B5164607460E4C53
:102D400040250323E5618DF804300B0C8DF8053028
:102D50008DF807100B0A01A804218DF80630FFF743
:102D600073FF38463146002202F0B0FFA561A5612D
:102D7000A56103B0F0BD00BF00C009200D4B40228B
:102D8000DA610D4BD7229A60DA68D106FCD40A4B7F
:102D90009B68094BFF229A60DA68D206FCD4064B86
:102DA00098680306F5D5034B40229A61C0B29A6138
:102DB0009A61704700C0092000000340F7B5FFF793
:102DC000DDFF1F4C002323801E4B1F4E40271A8817
:102DD0009B78F7610546032101A8ADF804208DF822
:102DE0000630FFF731FF9DF805209DF806301F2AB9
:102DF000B761B761B7611CD1A3F12502032A18D8C6
:102E0000124A252B137005F0010006D1002814BFCB
:102E10004FF480734FF4847305E0002814BF4FF41F
:102E200000734FF404732380FFF7C4FE084B400A7D
:102E300018602088B0FA80F0400903B0F0BD00BFF0
:102E400012C50720561D030000C0092014C5072025
:102E500018C507202DE9F0418B1817460E4A013B93
:102E600012688046934214D84D024446FFF786FF0D
:102E70000026C8EB0502BE42224407DA2146074875
:102E8000FFF7A8FE04F500740136F2E70020BDE864
:102E9000F0810120BDE8F08118C50720392D01001F
:102EA0002DE9F0418B1817460D4A013B1268804608
:102EB000934212D804464D020026C8EB0502BE42DA
:102EC000224407DA21460748FFF784FE04F5007420
:102ED0000136F2E70020BDE8F0810120BDE8F08175
:102EE00018C50720C92F010010B50C46072805D8C2
:102EF000DFE800F006090E1214141414042010BDAB
:102F0000FFF73CFF0AE0FFF755FE400A206005E0AE
:102F10004FF400730B8001E001230B60002010BD13
:102F200070B590B003466A466E4600F140051446FF
:102F300018685968083303C4AB422246F7D1084DDC
:102F40004024EC619B200021FFF7E4FE304621463F
:102F5000FFF77AFEAC61AC61AC6110B070BD00BF30
:102F600000C0092070B50646074D40247720002197
:102F7000EC61FFF7CFFE30462146FFF765FEAC61FE
:102F8000AC61AC6170BD00BF00C00920064B10B53C
:102F90001C8834F01F0404D0FFF70CFEB0FBF4F0E3
:102FA00010BD204610BD00BF12C50720014B188878
:102FB000704700BF12C50720024B1878003018BFB9
:102FC0000120704712C507202DE9F7434FF0FF336A
:102FD0000F46904601938146FFF7D0FEFFF7ECFFC6
:102FE0000646B0B1194C4025194BE5611B880320FA
:102FF000B3F5847F0CBF4FF480714FF400713943F7
:10300000FFF788FE01A80421FFF71EFEA561A56158
:10301000A5610E4C402382203946E361FFF77AFE1A
:1030200048464146012202F051FE3EB1019B02A8F2
:10303000013340F8043D0421FFF706FE4023A3615D
:10304000A361A36103B0BDE8F08300BF00C0092005
:1030500012C5072037B5074B074C1868402501906B
:103060000421E56101A8FFF7EFFDA561A561A56158
:1030700003B030BD591D030000C009201FB501A8D1
:1030800002F052FD9DF809309DF8082003F00F036F
:1030900002F01F025B0543EA02419DF806309DF8ED
:1030A000040003F01F0341EAC3229DF80530C0F37A
:1030B000440003F03F0342EA4313BDF80A201843DB
:1030C000520602F10842104305B05DF804FB30B52A
:1030D00004460D1F131B0344032B04D955F8043F6A
:1030E00044F8043BF6E722F00303194402F003021C
:1030F000013B18440A44914204D011F8013B00F806
:10310000013FF8E730BD0244904202D000F8011BB5
:10311000FAE7704700F10B010023DA0142EA53039A
:1031200010F8012B1344884203F0FF03F5D1184631
:103130007047026810B50446BAB11346184613F832
:10314000011B1F2902D93A29F8D101E0002010BD46
:10315000114611F8013B884207D1303BD9B2012911
:1031600003D802321846226010BD4FF0FF3010BD68
:10317000F8B5037904460BB90020F8BD056B00F1E2
:103180003407394640782A460123FFF754F990B9AD
:10319000636AE269EB1A93422071EDD2E678012E60
:1031A000EAD9E36960781D4439462A460123FFF7CE
:1031B00042F9013EF3E70120F8BD0000F8B50446EE
:1031C000FFF7D6FF05468DBB2378032B26D1667902
:1031D000012E23D104F13407384629464FF40072FA
:1031E000FFF791FF4AF65523A4F83232104B226ABA
:1031F000636303F1FF5303F500532033C4F818321F
:1032000063690132C4F81C3223692263C4F8203296
:10321000607839463346FFF70EF965710021607812
:103220000A46FFF724F9003018BF0120F8BD00BF9F
:1032300052526141036B70B5994205460E4610D05B
:10324000FFF796FF044608B101240BE0687805F10A
:10325000340132460123FFF7D2F80028F4D12E635F
:1032600000E00024204670BD002310B503714FF02C
:10327000FF3303630446FFF7DDFFA0B94AF6552389
:10328000B4F832229A4210D1D4F86A30084A23F0B6
:103290007F4393420AD0D4F8860020F07F40801A02
:1032A00018BF012010BD032010BD022010BD00BFBB
:1032B00046415400F0B50023036085B00746084638
:1032C0001546FFF736FF061EC0F2F2807E4B53F81C
:1032D0002640002C00F0EE80E068FFF753F800284D
:1032E00000F0EA803C60237883B16078FFF77FF8D4
:1032F000C1070BD4002D00F0D98000F0040303F0C7
:10330000FF00002B00F0DD800A20DAE00023F0B29D
:1033100023706070FFF758F8C20700F1CF800DB13D
:103320004307F1D420460021FFF79EFF01281CD15E
:103330002146002291F8F6310BB1D1F8FA314DF85F
:1033400022300132042A01F11001F3D100265DF888
:1033500026502DB120462946FFF786FF08B90BE01D
:1033600002200136042EF2D100E00025032800F0EF
:10337000A78008B10D20A4E0B4F83F30B3F5007F7A
:10338000F8D1B4F84A0000B9A06D94F844E0E061C7
:103390000EF1FF33012B84F803E0EBD894F84130B1
:1033A000A370002BE6D05A1E1A42E3D1B4F845C0F0
:1033B0001CF00F0FA4F808C0DCD1B4F8472002B904
:1033C000626DB4F842100029D4D00EFB00FE01EB70
:1033D0001C177744BA42CDD3D21BB2FBF3F3002BB8
:1033E000C8D040F6F572934206D94FF6F576B3424F
:1033F0008CBF0326022600E00126023329442F4415
:10340000032EA36125626162E76206D1BCF1000F61
:10341000B0D1226E9B00A26210E0BCF1000FA9D0D7
:10342000022E4FEA43020CBF1346D218714418BF54
:1034300003F00103A16218BF03EB520303F2FF1371
:10344000B0EB532F96D34FF0FF3363612361032E0C
:103450004FF08003637122D1B4F86430012B1ED188
:103460002046691CFFF7E6FEC8B94AF65523B4F8B2
:10347000322260719A4212D1626B144B9A420ED181
:1034800003F1FF53D4F8182203F5005320339A4276
:1034900001BFD4F81C326361D4F8203223610C4A96
:1034A0002670138801339BB21380E380002008E06C
:1034B0000B2006E00C2004E00F2002E0032000E0D7
:1034C000012005B0F0BD00BF20C507205252614168
:1034D0001CC5072010B50446A8B103689BB11A7833
:1034E0008AB1D988828891420DD1D868FEF74AFF07
:1034F00058B123685878FEF77AFF10F0010F14BF17
:103500000320002010BD092010BD0F2010BD50B1B8
:10351000A1F10B03012B06D9092904D00F2902D0F0
:10352000C068FEF742BF704783690239023B994287
:103530003DBF8278C36A02FB013000207047012939
:10354000F8B507460C464BD98369994248D20378AF
:10355000022B29D0032B34D0012B41D101EB510692
:10356000416A01EB5621FFF765FE10B14FF0FF30C5
:10357000F8BD796AC6F3080301363B44384601EBCF
:10358000562193F83450FFF755FE0028EED1C6F3CC
:1035900008063E4496F83400E30745EA00204CBF95
:1035A0000009C0F30B00F8BD416A01EB1421FFF7DD
:1035B00041FE0028DAD1630003F4FF73FE18B08ED9
:1035C000F8BD416A01EBD411FFF734FE0028CDD1DC
:1035D000A40004F4FE743C44606B20F07040F8BD1D
:1035E0000120F8BDF8B5054684680E46012CE98037
:1035F00001D10220F8BD03689A699442F9D254B906
:103600001A78032A01D19A6A22B91A899642F0D20D
:10361000986A17E0144621469F783F01BE420DD3B9
:103620002868FFF78CFF431C01461AD00128E0D917
:103630002B689B699842DCD2F61BEFE728680C46A2
:10364000FFF772FFEC600028D3D02B6800EB161058
:1036500006F00F0603EB4616343628616E61002033
:10366000F8BD0120F8BD0129F8B505460C461646FF
:103670005FD9836999425CD20378022B38D0032B3F
:1036800042D0012B51D101EB5107416A01EB572187
:10369000FFF7D0FD002849D1C7F3080314F0010457
:1036A0002B4418BF93F83410F2B21EBF01F00F0183
:1036B00041EA0212D2B2696A83F834200137012349
:1036C0002B71284601EB5721FFF7B4FD70BBC7F300
:1036D00008072F4414B1C6F3071606E097F83430F4
:1036E000C6F3032623F00F031E4387F834601DE062
:1036F000416A01EB1421FFF79DFDB8B9640004F4A1
:10370000FF742C44A68611E0416A01EBD411FFF747
:1037100091FD58B9A40004F4FE7430342C4463685D
:1037200003F070431E43666000E0022001232B710A
:10373000F8BD0220F8BDF8B505460F4631B9066957
:1037400096B183699E4228BF01260EE0FFF7F7FE7F
:1037500001283FD9441C02D14FF0FF30F8BDAB69BE
:10376000984238D33E4600E001263446AB69013426
:103770009C4204D3012E01D80020F8BD0224284623
:103780002146FFF7DCFE30B1411C24D0012822D0B5
:10379000B442EBD1F0E7284621466FF07042FFF7C4
:1037A00062FFA8B957B96B692C615A1C0ED0013B56
:1037B0006B616B7943F001036B7107E02846394672
:1037C0002246FFF750FF0028EDD001E02046F8BD6B
:1037D0000128C1D00120F8BD2DE9F843C688044670
:1037E0000136B3B20F4613B90420BDE8F88303696C
:1037F000002BF9D016F00F0859D1C16801330361CD
:10380000006819B903899E42EED250E08378013BEB
:1038100013EA16134BD1FFF792FE0128054602D892
:103820000220BDE8F883421C02D10120BDE8F883E4
:10383000206883699D4234D3002FD5D0E168FFF71B
:103840007AFF054600283BD00128E9D0431CECD084
:103850002068FFF78DFC07460028E6D1206839462E
:1038600034304FF40072FFF74EFCD4F80090294634
:103870004846FFF759FEC9F8300023689A78974206
:103880000CD201221A712068FFF772FC0028CCD1FB
:1038900022680137136B01331363EEE71A6BD71BF2
:1038A0001F63E56020682946FFF73EFE206123681C
:1038B000E68003EB4813343363610020BDE8F883EE
:1038C0000720BDE8F88300002DE9F74F00210646E8
:1038D000FFF788FE002840F087804FF6FF734FF017
:1038E000FF084446338430683169FFF7A3FC0028A1
:1038F0007AD175692B78002B6DD0E52BE97A5FD0F2
:103900000F0701F03F0202D50F2A59D101E00F2A1B
:1039100042D1D6F81C90B9F1000F55D0580606D503
:1039200003F0BF04F38895F80D80338401E0A342CF
:1039300049D16B7B434546D12F784FF0000A27F0E1
:1039400040077B1E0D275F430123294A1AF80220F6
:10395000A85A83B1FEF7F8FC7F2F019033D839F8CD
:103960001700FEF7F1FC019A07F1010B82420346B2
:1039700029D15F4603E04FF6FF72904223D10AF14E
:10398000010ABAF10D0FE0D12A78510629D543B3C7
:1039900039F817302BB316E024B92846FFF7BAFBE5
:1039A00080451AD0B369DA7AD20709D405F10B0041
:1039B000854214D015F8011B13F8012B9142F7D062
:1039C0004FF6FF733384FF2430460021FFF704FFD6
:1039D000002888D008E0042006E0204604E000200B
:1039E00002E0013CE4B2EFE703B0BDE8F08F00BFB6
:1039F000601E03002DE9F74F0B7807462F2B8846F2
:103A000001D05C2B01D108F101080024BC6098F8BA
:103A100000301F2B5DD838462146FFF7E3FD7C615F
:103A20000CE1013339F81320202AFAD02E2AF8D0DD
:103A30000BB144F00304524632F8021D2E2901D086
:103A4000013DF9D14FF0000B5E464FF0080A39F8FE
:103A500013005A1C002840F08A80BB691A78E52AB6
:103A600004BF05221A70BAF1080F04BFB600F6B2FF
:103A700006F00C030C2B00F0C58006F00302032AAD
:103A800000F0C080A10709D406F00306012E08BF8C
:103A900044F01004042B08BF44F00804BB69384606
:103AA000DC72FFF711FFBB69DB7A002840F0AD80C4
:103AB0005A0700F1C3807A69D37ADB0640F1AC8003
:103AC0003968538B0978032904BF928A43EA024379
:103AD000BB6098F8003044462F2B08F10108F8D05D
:103AE0005C2BF6D0D7F81C9004F1FF3AA9F102063E
:103AF00000251AF8010F05F101081F281AD92F28EF
:103B000018D05C2816D0B8F1810F00F08780012111
:103B1000FEF7FEFB002800F081807F2806D8494A86
:103B200012F8013F13B18342FAD177E026F8020F71
:103B30004546DEE72028A04409EB450334BF0424B2
:103B40000024002D6AD033F8022D202A01D02E2A1D
:103B500001D1013DF5E7002629F81560B86920215B
:103B60000B22FFF7D0FA09EB450A33465AE7202823
:103B700003D02E2805D1AA4252D044F003041346A4
:103B800065E7D34502D2AA4216D149E0BAF10B0F3C
:103B900004D144F003044FF00B0A5EE7AA4203D0BD
:103BA00044F003043FF659AFB600F6B22A464FF090
:103BB0000B0A4FF0080BE2E77F280CD90021019295
:103BC000FEF7A6FB019A18B11F4B184410F8800CA1
:103BD00044F0020428B11D4911F8013F2BB1834282
:103BE000FAD144F003045F2006E0A0F141039BB248
:103BF000192B19D846F00206BB6903F80B000BF12C
:103C0000010BBCE744F002043CE7042816D113F092
:103C1000040F08BF052011E005200FE006200DE08D
:103C2000BAF10B0FC0D1B4E7A0F161039BB2192B1D
:103C30009EBF203846F0010680B2DDE703B0BDE844
:103C4000F08F00BF9B1D0300E01D0300A41D0300B7
:103C5000F0B5866987B0C4690546314603A80C22D1
:103C6000FFF735FA9DF81730DB075ED50023F372B6
:103C70000127EB61304603A90B22FFF728FA052F35
:103C800015D93B46A01E30F8022F8AB1102102F050
:103C9000010E0EEB430313F4803F1CBF83F4883303
:103CA00083F0210301394FEA5202F0D1EBE73B46A2
:103CB000072203F00F0000F13001392988BF00F11D
:103CC0003701013A06A810441B0900F8131CF0D173
:103CD00006A97E20114401F8140C934201D133440B
:103CE00004E0F15C2029FAD00133F6E7072A9DBFF2
:103CF00006A9891811F8141C202103F8011BA3EB55
:103D0000060198BF01320729F0D92846FFF7DCFDEC
:103D100020B90137642FADD1072099E0042840F085
:103D200097809DF81730F372EC619DF817309B0770
:103D300001D4012409E0002334F813200AB101332F
:103D4000FAE719330D24B3FBF4F428460021FFF7FA
:103D500049FCA8B9064628682969FFF76BFA78B9C3
:103D60006B691B78E52B00D01BB90136A64201D147
:103D70000AE0064628460121FFF72EFD0028EAD07A
:103D8000042808BF072063E0013E47D0E9882846A1
:103D9000891BFFF727FC00285AD1A869FFF7BAF959
:103DA000044628682969FFF745FA0346002B4FD1DE
:103DB0006A690F21F7B2D5F81CE0781ED1720D2187
:103DC000414318465473137353834FF6FF7C604589
:103DD000DFF880C018BF3EF8110013F80CC003F1E3
:103DE000010322F80C004FF6FF7C18BF01310028B8
:103DF00008BF60460D2BE8D1604502D03EF8113077
:103E00000BB947F0400717702B6801221A7128463A
:103E10000021FFF7E1FCD8B9013EC2D12868296929
:103E2000FFF708FA044690B9686921462022FFF797
:103E30006AF90B226869A969FFF749F9AB696A69F0
:103E4000DB7A03F0180313732B6801221A712046E2
:103E500007B0F0BD601E0300012970B504460D4691
:103E600001D8022070BD83699942FAD2A3699D42AC
:103E700005D220462946FFF762FB064608B9002016
:103E800070BD0128EDD0411C11D0204629460022EA
:103E9000FFF7E9FB60B9636935465A1C1FBF013360
:103EA0006361637943F0010318BF6371DEE70120AA
:103EB00070BD0000F0B585B0019004A840F8041D65
:103EC00000911646FFF735F9041E2ADB174B53F80D
:103ED00024501F463DB1E868FEF752FA08B90220A7
:103EE00022E000232B70019921B9019847F82400A2
:103EF00048B919E0002301F80C3BE0B2FEF736FAAE
:103F00000028ECD0F1E7012E0DD16946002201A86E
:103F1000FFF7D0F9044601982146FFF7F8FA20464A
:103F200002E00B2000E0002005B0F0BD20C5072016
:103F30002DE9F043D1B0019190460546002800F0EC
:103F400084800023036001A906A802F01E02FFF787
:103F5000B1F90646002872D103AB0C9306A80FAB4B
:103F600001990D93FFF746FD0B9C10B9002C08BF7B
:103F7000062018F01C0F08F01F073BD048B104289A
:103F800002D106A8FFF764FE47F008070B9C38B182
:103F900062E0E37A13F0110F5DD118F0040F56D1EF
:103FA000380731D5FFF76AF80023C4F80E000698E9
:103FB000E372E3610278B4F81A80032A08BFA28A88
:103FC0006383A38208BF48EA024801230371B8F162
:103FD000000F19D04146D0F83090FFF73DFF002880
:103FE0003AD1069808F1FF3303614946FFF722F9F9
:103FF00050B131E000282FD1E37AD90629D418F046
:10400000020F01D0DA0726D43B07069B48BF47F0D2
:1040100020071A6BAF71EA610022EA712C621978ED
:10402000628B032904BFA18A42EA01422A61E26944
:104030002B60DB88EA600022AA60AA61AB80069848
:104040003146FFF764FA304608E0092006E0082010
:1040500002E0042000E007200646F0E751B0BDE88A
:10406000F0832DE9F84F98460023C8F80030064643
:104070000F461446FFF72EFA054630B13068294640
:10408000FFF745FA2846BDE8F88FF17929B1306885
:10409000FFF73DFAF079BDE8F88FB379D90706D478
:1040A00030680721FFF733FA0720BDE8F88FF3687F
:1040B000B068181A844228BF0446002C00F088809B
:1040C000B368C3F30802002A69D130688578013DDE
:1040D00005EA532515F0FF050CD10BB9306902E054
:1040E0007169FFF72CFA012801D8022453E0421C21
:1040F00050D07061D6F800B071695846FFF714FAD5
:1041000018B90224F471584663E05FEA542900EBC1
:10411000050A23D09BF8023009EB05029A4288BFBA
:10412000C5EB03099BF80100394652465FFA89F353
:10413000FEF765F970BBB3795B060CD5B069CAEBC5
:104140000000484507D207EB402006F124014FF458
:104150000072FEF7BCFF4FEA49252EE0B2695245D6
:104160001BD0B37906F1240513F0400F0AD09BF859
:10417000010029460123FEF75EF958B9B37923F00F
:104180004003B37133682946587852460123FEF73D
:1041900036F910B10124F4711AE0C6F818A0B1681C
:1041A0003846C1F30801C1F50075A54228BF254670
:1041B000314424312A46FEF78AFFB3682F442B444A
:1041C000B360D8F80030641B2B44C8F8003074E7A3
:1041D00030682146FFF79BF92046BDE8F88F2DE9AE
:1041E000F84F98460023C8F8003004460F4616469C
:1041F000FFF770F9054600285ED1E17929B1206802
:10420000FFF785F9E079BDE8F88FA379990706D41F
:1042100020680721FFF77BF90720BDE8F88FA36826
:10422000DE4228BF002630E0750A00EB090A78D08C
:104230009BF8023005EB09029A4288BFC9EB0305DF
:104240009BF8010039465246EBB2FEF7F4F800281D
:1042500077D1A169CAEB0101A9420BD204F1240074
:1042600007EB41214FF40072FEF731FFA37923F0F1
:104270004003A3716D02A3682F442B44A360D8F8B8
:104280000030761B2B44C8F8003016B3A368C3F384
:104290000802002A59D1206890F8029009F1FF39EC
:1042A00009EA532919F0FF091FD163B9216959B1EE
:1042B000012914D10225E57120682946FFF727F965
:1042C0002846BDE8F88F6169FFF735FA01460028F6
:1042D000EED1A368E26893424AD9E36048E04A1C01
:1042E0002FD02369616103B92161A3795B060CD5E5
:1042F000214651F8243BA26958780123FEF79BF828
:10430000F8B9A37923F04003A371D4F800B0616930
:104310005846FFF709F9002886D10225E57158466D
:10432000CBE7A36953450ED0A268E3689A420AD24C
:104330009BF8010004F1240152460123FEF75FF8C7
:1043400008B10125B7E7C4F818A0A0683946C0F342
:104350000800C0F50075B54228BF3546204424301A
:104360002A46FEF7B4FEA37943F04003A37182E727
:10437000A379206843F02003A3710021FFF7C7F859
:104380000020BDE8F88F70B50446FFF7A3F8054696
:10439000002838D1A3799A0635D55B0612D5214677
:1043A00051F8243BA26958780123FEF744F828B15C
:1043B00020680121FFF7ABF8012070BDA37923F03D
:1043C0004003A3712068E169FEF734FF0546D0B9C8
:1043D000266AF37A43F02003F372E368F3612369FA
:1043E00073831B0CB382FEF749FE7582C6F8160074
:1043F000A379012223F02003A37123681A71206896
:10440000FEF7DCFE054620682946FFF780F82846BF
:1044100070BD38B50546FFF7B6FF044648B92846D3
:10442000FFF758F8044620B9286821462C60FFF7AA
:104430006EF8204638BDF8B504460E46FFF74AF838
:10444000054678BBE17921B12068FFF760F8E07993
:10445000F8BDE3689E4204D9A27912F0020F08BFAA
:104460001E460022A368A2600EB9002655E020680F
:1044700085786D026BB1013B721EB2FBF5F2B3FBA6
:10448000F5F18A4205D36A421340A360F61A6169C6
:1044900012E0216979B9FFF74EF90128014607D1E9
:1044A0000225E57120682946FFF731F82846F8BD56
:1044B000013052D0216161610029D6D0AE421AD9B3
:1044C000A37920689A0704D5FFF735F9014618B992
:1044D00010E0FFF734F801464B1C3ED00129DFD92C
:1044E00023689B699942DBD2A36861612B44A36076
:1044F000761BE3E72E46A3683344A360C6F30803A4
:10450000002BB2D027683846FFF70EF818B90225FD
:10451000E5713846C7E700EB5626A368C3F30803E6
:10452000F3B1A26996421BD0A37904F1240513F0DC
:10453000400F0AD02368294658780123FDF77BFFF6
:1045400058B9A37923F04003A3712368294658780A
:1045500032460123FDF753FF08B10125A1E7A6610B
:10456000A368E2682068934284BFE360A3794FF0B8
:10457000000184BF43F02003A371FEF7C8FF0020B1
:10458000F8BD2DE9F34702AB43F8040D144610467D
:10459000884600221946FEF78DFE2468054600284D
:1045A0004CD1A7696369BA1E934202D8C8F800309B
:1045B00044E094F80090B9F1010F10D106460227AB
:1045C00020463946FEF7BBFF431C2BD001282BD0D9
:1045D00000B90136A36901379F42F1D327E00346B2
:1045E00002460646616A52B9204601F1010AFEF709
:1045F00021FED8B9514604F134034FF40072B9F1E9
:10460000020F05D1188800B901360233023A06E0DC
:10461000186820F0704000B901360433043A013FB5
:10462000E1D104E0012502E0022500E005466379BE
:10463000666143F001036371C8F8006020462946B3
:10464000FEF765FF284602B0BDE8F0872DE9F04F80
:1046500089B008AB43F80C0D18460E461546FEF718
:1046600068FD0028C0F20A82012E00F209826B1E4A
:104670002B4040F00582BE4A52F82090B9F1000F5D
:1046800000F00082C7B289F800303846FDF79CFE82
:10469000C20700F1F981430700F1F8813846012192
:1046A00007AAFDF7E4FE08B101203FE2079B7F2B3C
:1046B000FAD9002E14BF00223F229B1A01920793C1
:1046C0006DB94FF4FA62B3FBF2F2AA4931F8151052
:1046D0008A4201D20135F8E7A74A32F815506D0A2F
:1046E00003D0812D28BF802500E00125B3FBF5F420
:1046F00040F6F572944240F205824FF6F57294420C
:1047000040F20F82A40004F207240022640A4FF052
:10471000030803924FF0200B019A5A440292039A25
:1047200002EB040A029A9244019AAA1A5244934252
:1047300001D20E20FAE13846032106AAFDF797FEC2
:1047400020B9069B013BB3F5004F01D3012306932B
:10475000069AB8F1030F02F1FF335344C2F100028D
:1047600003EA020308BF029ACAEB030304BFD2188C
:104770009B44069308BF1346079A14BFE41802939C
:104780000399CBEB02031B1B5B1AB3FBF5F3B8F1E8
:10479000020F049305D140F6F57304999942C8D9E4
:1047A00016E0B8F1030F05D14FF6F573049A9A425B
:1047B000BFD987E1B8F1010F0AD1B2F5803F34BF0C
:1047C0004FF0010A4FF0060A002E40F0618107E029
:1047D000B2F5803F34BF4FF0040A4FF0060AC6BB63
:1047E00009F13406304600214FF40072FEF78BFCCD
:1047F000FE21DDF81CE089F8F7110199012301EB96
:104800000E0043F6C161B0FBF1F18808069189F80A
:10481000F9113F21C9F8FA114AF6552140F03F003D
:10482000002289F8F801A9F8321289F8F33189F8E1
:10483000F43189F8F52189F8F6A1C9F8FEE1384686
:104840003146FDF7F8FD00287FF42EAF4FF0F80A4F
:1048500001E04FF0F00A09F13406304600214FF430
:104860000072FEF750FC304644490B22FEF72FFC45
:104870004FF40073B8F1030FA9F83F304FF0010374
:1048800089F8443089F84150A9F842B00CBF0023A0
:104890004FF40073A9F84530079B89F849A0B3F598
:1048A000803F34BFA9F84730C9F854303F23A9F8F6
:1048B0004C30FF23A9F84E30019BC9F85030FEF769
:1048C000DDFBB8F1030F069016D10223C9F8603062
:1048D0000123A9F864300623A9F86630802389F8FB
:1048E00074302923C9F87700C9F8584089F8763020
:1048F00009F17B0022490CE0802389F858302149D6
:104900002923C9F85B00A9F84A4089F85A3009F10F
:104910005F001322FEF7DBFB4AF655233846A9F861
:1049200032323146019A0123FDF785FD00287FF4DC
:10493000BBAEB8F1030F06D1019B38469A1D314634
:104940000123FDF778FD304600214FF40072FEF799
:10495000DAFBB8F1030F19D00B4BB8F1010F18BFF8
:104960006FF0FF0343EA0A030693C9F834301AE0F4
:1049700020C50720701D0300861D0300AC1D030029
:10498000B81D0300CC1D030000FFFF006AF0FF0309
:104990000693C9F834304FF0FF33C9F838306FF060
:1049A0007043C9F83C30029B31461A4603F1010AB4
:1049B00038460123FDF73FFD014600287FF474AE21
:1049C00030464FF40072FEF79EFB01230693069BD0
:1049D000A3420FD238463146524601230AF1010B59
:1049E000FDF729FD00287FF45FAE069BDA46013310
:1049F0000693ECE7039B5446B8F1030F18BF1D461E
:104A000038463146524601230AF1010BFDF713FDEA
:104A100000287FF449AE2B195B45DA46F0D1B8F196
:104A2000030F22D1434B3146C9F8343003F1FF5311
:104A300003F500532033C9F81832049B3846013B74
:104A4000C9F81C320223C9F820324AF65523A9F8C6
:104A50003232019B5A1C0123FDF7EDFC019B3846C5
:104A6000DA1D31460123FDF7E6FC002138460A46EF
:104A7000FDF7FDFC003018BF012057E00B2055E08A
:104A8000132053E00C2051E003204FE00A204DE0BA
:104A900009F13406304600214FF40072FEF733FB73
:104AA000304625490B22FEF712FB4FF40073A9F89C
:104AB0003F3089F84150A9F842B089F844804FF05E
:104AC000F00AE7E6DEB109F13406304600214FF482
:104AD0000072FEF718FB304617490B22FEF7F7FA73
:104AE0004FF40073A9F83F30012389F8443089F866
:104AF0004150A9F842B04FF0F00A0023CAE64FF047
:104B00000C0A6DE604EB44040134640803344FF0EE
:104B1000010804F2FF142022640A03924FF0010BF3
:104B2000FAE5023464004FF00208F2E709B0BDE88C
:104B3000F08F00BF52526141AC1D0300F8B50D4625
:104B400016461F4608B90120F8BD0029FBD00468AD
:104B5000002CF8D0206831463A46069BA84708B199
:104B60006468F5E7F8BD0000F0B50024ADF50D7DF3
:104B70000D460746029403F08FF84FF47A72002333
:104B800013F0B2F8214606464FF4097203A814F058
:104B900037F9DDB103A81C491222FFF7C9F9044611
:104BA00080B903A80699FFF746FC044630B903A86C
:104BB00039462A4602ABFFF712FB044603A8FFF76B
:104BC00028FC04E0114815F09DFA00E02C4603F0A3
:104BD00063F84FF47A72002313F086F80C4B801BB5
:104BE0001A889042029A88BF1880AB1A5E425E41D2
:104BF00036B9059B0748009321462B4615F082FAEB
:104C000030460DF50D7DF0BD6D1E0300771E0300CF
:104C10002CC507208B1E03002B4B2DE9F7431E6884
:104C200006F58068B14602AF0023284C47F8043DE2
:104C3000206839464EF6602201F0B4FF08B1019BAE
:104C40002BB93046C6EB0901FFF78EFFEAE7206873
:104C500002F052F81E4B019C1A880130904288BF26
:104C60001880204616F0CAFA0A232354451C019BDB
:104C7000002209EB05045A554445019915D34846CD
:104C8000C9EB080214F096F8C8EB040430464FF460
:104C90008061FFF769FF34B101992D1B304629442B
:104CA000224614F087F8344403E048462A4614F0BC
:104CB00081F8084B394618684FF0FF32002301F0A5
:104CC0009DFEA146AFE700BF30C5072028C50720DD
:104CD00038C5072034C507202DE9F0412E4D86B098
:104CE0002C688046002C54D14FF48060059413F05A
:104CF000E7FF2A4E286040B92868002835D013F015
:104D0000E7FF254B00221A602FE0042122460A20EB
:104D100001F043FE224F0421386022460A2001F0B0
:104D20003CFE3B683060002BE6D00028E4D00A242B
:104D3000962013F0C5FF05900028DDD000223068D2
:104D400005A9134601F05AFE013CF1D1CDF80080CF
:104D5000019402940394134813494FF4C0722346FC
:104D600002F03EF80028C7D013E033681BB90F48A3
:104D700015F084FA0DE00A240022306805A91346D4
:104D800001F010FF10B1059813F0A2FF013CF3D120
:104D9000EDE706B0BDE8F08130C5072034C5072037
:104DA00028C50720194C0100BE1E0300C51E0300C4
:104DB00010B5044602F01CFD013C14F8010F10B1BF
:104DC00003F070F9F9E7BDE8104002F023BD0FB41D
:104DD00070B5C2B046AC54F8046B4FF480752A46E7
:104DE00002A8002114F00CF823462946324602A8F6
:104DF000019417F003FC044602A8FFF7D9FF2046F0
:104E000042B0BDE8704004B0704713B50C4602AA2A
:104E100000210B4642F8041D006801F088FE019B4A
:104E20001BB1236843F001032360012002B010BDD1
:104E300030B5044685B001A80D4600F075FE9DF81A
:104E40000630227903F01F039A421CD19DF80530E9
:104E5000627903F03F039A4215D19DF80430A2799C
:104E600003F03F039A420ED12368002104AA186878
:104E700042F8101D0B4601F05AFE009B1BB12B6837
:104E800043F001032B60012005B030BD30B5224A4C
:104E900087B01378214C43F001031370002503A859
:104EA000029500F041FE2B46009520681C4902AA9D
:104EB000FFF744FE9DF80C3013F03F031BD1009325
:104EC0006068174902AAFFF739FE9DF80D3013F00C
:104ED0003F0310D10093A068114902AAFFF72EFEEC
:104EE0009DF80E3013F01F0305D10093E0680C49C4
:104EF00002AAFFF723FE00230A4A009310680A491A
:104F000002AAFFF71BFE029B1BB1084B4FF0805219
:104F10001A6007B030BD00BF004002403CC507200A
:104F20000B4E01004CC50720314E010004ED00E09E
:104F300070B50D46044614F8013B23B326490868B2
:104F400082689368013B002B936012DA9669B34242
:104F50000ADB136814F8012C1A7008688268136859
:104F600019780A290CD101E014F8011C17F07CFB18
:104F7000E1E7136814F8012C1A700B689A6813683B
:104F800001331360D7E725B12846BDE8704015F01E
:104F900075B91149086882689368013B002B9360DA
:104FA00011DA9469A34209DB13680A221A700868AF
:104FB0008268136819780A290BD100E00A21BDE83C
:104FC000704017F051BB13680A221A700B689A6878
:104FD00013680133136070BDC4C107201A4B70B54C
:104FE0001B780D4673B3044614F8013B23B31749ED
:104FF000086882689368013B002B936012DA966917
:10500000B3420ADB136814F8012C1A70086882682E
:10501000136819780A290CD101E014F8011C17F063
:1050200023FBE1E7136814F8012C1A700B689A68E7
:10503000136801331360D7E725B12846BDE87040F7
:1050400015F01CB970BD00BF50C50720C4C10720B2
:105050003C4B2DE9F3411A68036904469A4235D165
:1050600000273D4638480021FFF7B8FF606A3749FE
:10507000FFF7B4FF36480021FFF7B0FF354B1E683D
:105080008EB1D6F800800137D8F8003040461B6951
:10509000766898470028F3D1D8F824002E49FFF706
:1050A00047FF0125ECE735B12C483146FFF740FFBB
:1050B00001F090FF0AE0BD4208D0294B002118689A
:1050C0000A460B4601F09AFC0135F4E7244B002117
:1050D0004FF0FF3218680B4601F064FD01F08EFFBF
:1050E000019001F08BFF0546606818B1E16801F09E
:1050F0000EFEA060236820465B69A16A98470646B9
:1051000030B9606A1749FFF713FF304602F036F9ED
:10511000A3690133A361236A1BB101F06FFFA842A9
:1051200006D8E1690029DFD001A802F05DF8DBE7CD
:1051300001F064FF256A0544206902F00DFA800041
:105140006061EEE758C50720481F03004C1F0300AD
:10515000791F03005CC50720A61F0300BF1F0300C3
:1051600054C50720E71F03002DE9FF412F4E31688A
:1051700021B92F48FFF7DCFE012053E04FF0000873
:1051800045462C480021FFF729FF3468E4B1276821
:10519000646897F83030FA6A009307F110030193BE
:1051A0000023029303932448796AC2F38F023B469B
:1051B00008F1010801F014FE0028E7D1786A1F49C0
:1051C000FFF7B6FE0125E1E74046214601F00DFC60
:1051D0001B4B186020B91B482146FFF7A9FE01258B
:1051E00019480021FFF7FAFE34686CB1276864683B
:1051F0003B6838469B6898470028F6D1786A13497F
:10520000FFF796FE0125F0E7114B326819683AB1B5
:1052100016685268F06AA04284BF31690446F6E716
:105220002846196004B0BDE8F08100BF5CC50720C6
:105230001720030045200300515001005C200300AB
:1052400054C50720772003009A200300B5200300EF
:1052500058C5072010B5044638B10820FBF70CF8F4
:10526000024B04601A681860426010BD5CC50720DC
:105270000C4B10B518700846FFF776FF044650B97E
:1052800009482146FFF7AAFE02F014FA01F078FE61
:105290000648214601E006480021BDE81040FFF71E
:1052A00047BE00BF50C50720C9200300E42003000B
:1052B0000821030070B50B4D416205600025456073
:1052C0008560056145618561C5614EF6602504997B
:1052D0004FF47A76C66005628162C26280F830302F
:1052E00070BD00BF301F030070B5064602F0D4FC4D
:1052F000841941F1000502F0CFFCA94208BFA04289
:10530000F9D370BD08B502F037F9831E58425841F1
:1053100008BD10B50446FFF7F5FF20B12046BDE8F3
:10532000104001F09BBF4FF47A706043BDE810401D
:10533000FFF7DABF074A136823F0E06323F0FF03A7
:105340001360136843F08071012383400B431360A3
:10535000704700BF0040034007B500230A4A01938D
:10536000526802A9C2F30B1221F8062D074A1068F1
:1053700001AA01F0DCFB019B1BB1054B4FF08052F1
:105380001A6003B05DF804FB0040034060C50720CD
:1053900004ED00E010B502F0F7FD0121C4080C2077
:1053A00002F012FC0C20032102F026FC114A4FF4FB
:1053B000001313600223B4FBF3F00F49884204D8B2
:1053C000116841EA0323136003E00233B3F5807FE1
:1053D000F1D1012001F085FB084B00221860022169
:1053E000012001F0DAFA064B4FF480021860054BF9
:1053F0001A6010BD004003403F5DC60064C5072031
:1054000060C5072000E100E0F7B507284FF0000471
:105410000546ADF806402AD802F0AEF80228164E2E
:1054200019D1164F214623464FF0FF32386801F05C
:10543000B9FB2846FFF77EFF0DF1060123463068D1
:105440004FF0FF3201F0AEFB38682146224623467A
:1054500001F0D4FA0BE02846FFF76CFF0022306819
:105460000DF10601134601F09DFB0028F6D0BDF8B2
:10547000060003B0F0BD00BF60C5072064C507206B
:10548000026830B5D36913F0040310D002F1300381
:1054900001F1100451F8045BA14243F8045BF9D117
:1054A000438A0133438221235360012030BD1846D3
:1054B00030BD00002DE9FF41264D440155F8048020
:1054C0002E19D8F80C70D8F808303B43D9071AD5F4
:1054D000706801F01AFCF3890836984288BFF080A2
:1054E00000222E19706808F12001134601F01FFBFD
:1054F00018B1B38A0133B38202E0B3890133B381B7
:105500000423C8F8043040F202633B4093B12E19E3
:10551000B06801F0FAFB338A6946984288BF30824E
:105520002E19B068002201F0BEFB18B13046694662
:10553000FFF7A6FFBA0603D52B199B693846984793
:105540003B0703D52C44E3693846984704B0BDE8CF
:10555000F08100BF0CC00720084B10B5D3F8C44041
:10556000A20402D50020FFF7A5FF630404D5BDE81F
:1055700010400120FFF79EBF10BD00BF00C00F40CC
:1055800070B50D4D0D4C4FF40016C5F88060236BBF
:105590000B4823F001032363E36A43F00103E36252
:1055A000FFF715FC074814F069FE236B03F00103B5
:1055B00023632E6070BD00BF00E100E080800240E8
:1055C0003E210300522103007C22002310B54FF43A
:1055D0001651044603711346006800F04BFC01238A
:1055E0002071637110BDF7B5054601AAA91D0024FD
:1055F00068460FF0BFFD85F8824068462A212246A2
:105600000FF02EFA07460126BE4207DA31466846F9
:105610000FF02EFB037801365C40F5E7009B3A461D
:1056200053F80C3C01A8013B69460FF069FD0021CD
:1056300001A80FF01DFB067801A80FF09BFAA64207
:105640000CBF0123002385F8823068460FF092FAE0
:1056500003B0F0BD70B5002425462346C618B679C0
:105660002C2E04BF01340133944204BFC618B6790E
:1056700003F1010304BF4E5501357B2BEEDD002302
:105680004B5570BD10B586B001A900220446FFF746
:10569000E1FF01A8174915F0FEF848BB1648FFF7CF
:1056A00096FB0322204601A9FFF7D4FF01A9134866
:1056B000FFF78DFB0422204601A9FFF7CBFF01A9CC
:1056C0000E48FFF784FB0E48FFF781FB05222046BA
:1056D00001A9FFF7BFFF01A90848FFF778FB2046A3
:1056E00001A90622FFF7B6FF044801A9FFF76FFBE7
:1056F00006B010BD5C21030063210300DE1303002C
:10570000692103002DE9F3410446642001F0A6FD60
:105710002068A02103684FF0FF325B68984764203F
:1057200001F09CFD2068A12103684FF0FF325B6807
:105730009847642001F092FD2068002103684FF033
:10574000FF325B689847642001F088FD20680921DA
:1057500003684FF0FF325B689847642001F07EFDDC
:105760002068082103684FF0FF325B689847642087
:1057700001F074FD2068002103684FF0FF325B6880
:105780009847642001F06AFD2068002103684FF00B
:10579000FF325B689847642001F060FD20680021BB
:1057A00003684FF0FF325B689847642001F056FDB4
:1057B0002068002103684FF0FF325B68984764203F
:1057C00001F04CFD2068012103684FF0FF325B6857
:1057D0009847642001F042FD2068002103684FF0E3
:1057E000FF325B689847642001F038FD2068002193
:1057F00003684FF0FF325B689847642001F02EFD8C
:105800002068002103684FF0FF325B6898476420EE
:1058100001F024FD2068092103684FF0FF325B6826
:105820009847642001F01AFD20680D2103684FF0AD
:10583000FF325B689847642001F010FD20680A2160
:1058400003684FF0FF325B6898470025642001F041
:1058500005FD6420657101F001FD2068A021036849
:105860004FF0FF325B689847642001F0F7FC206836
:10587000A12103684FF0FF325B689847642001F074
:10588000EDFC2068294603684FF0FF325B689847BB
:10589000642001F0E3FC2068032103684FF0FF322D
:1058A0005B6826469847642001F0D8FC20683721C1
:1058B00003684FF0FF325B689847642001F0CEFC2C
:1058C0002068012103684FF0FF325B68984764202D
:1058D00001F0C4FC2068294603684FF0FF325B6882
:1058E0009847642001F0BAFC2068362103684FF025
:1058F000FF325B689847642001F0B0FC20680D21FE
:1059000003684FF0FF325B689847642001F0A6FC03
:1059100056F8050B4FF0FF3203680A215B68984781
:10592000642001F09BFC334604F18102002103F85E
:10593000011F9342FAD1A51D2F4604F18308206868
:10594000294603684FF47A721B68984710B10135F5
:105950004545F4D1394601AA68460FF00BFC2421D5
:10596000002268460FF07CF8054624212A46684646
:105970000FF076F86A1C034622D0591C20D02A4624
:1059800001A869460FF0BCFB0025019B53F80C3CB5
:105990009D420AD32046FFF726FE10B12046FFF7AE
:1059A00071FE01A80FF0E6F80AE0294601A80FF001
:1059B0005FF9013503787C2D06F8013FEAD0E4E772
:1059C00068460FF0D7F8012002B0BDE8F081000072
:1059D00070B5074C0546236833B92C20FAF74CFC08
:1059E000064600F067FA2660236828462B6070BDE3
:1059F00068C5072070B5184B0E465C69174B054605
:105A00001A6C1A2022F470021A641A6C04F44064AE
:105A100042F420021A64996E41F440619966196853
:105A200021F470011960196841F420011960032103
:105A300002F0E2F802F0A8FAB4F5406F014606D190
:105A400028463246BDE87040C90800F079BB012302
:105A50006B71002070BD00BF00C0092000C0024073
:105A600010B50446024900F037FB204610BD00BFC8
:105A700000000A4038B5084C23683BB940F2244086
:105A8000FAF7FAFB0546FFF7EBFF25602068BDE853
:105A9000384000F0D5BC00BF0CC3072008B5044B4C
:105AA0001B689847034A137A43F00103137208BD39
:105AB0006CC5072000000B401FB50446054B0DF1D7
:105AC000100E0FCB0EE90F000EEB840454F8100CEF
:105AD00004B010BD7421030073B50E460546FFF7F0
